{
  "_format": "hh-sol-artifact-1",
  "contractName": "SightseeingToken",
  "sourceName": "contracts/SightseeingToken.sol",
  "abi": [
    {
      "inputs": [],
      "stateMutability": "nonpayable",
      "type": "constructor"
    },
    {
      "anonymous": false,
      "inputs": [
        {
          "indexed": true,
          "internalType": "address",
          "name": "owner",
          "type": "address"
        },
        {
          "indexed": true,
          "internalType": "address",
          "name": "spender",
          "type": "address"
        },
        {
          "indexed": false,
          "internalType": "uint256",
          "name": "value",
          "type": "uint256"
        }
      ],
      "name": "Approval",
      "type": "event"
    },
    {
      "anonymous": false,
      "inputs": [
        {
          "indexed": true,
          "internalType": "address",
          "name": "previousOwner",
          "type": "address"
        },
        {
          "indexed": true,
          "internalType": "address",
          "name": "newOwner",
          "type": "address"
        }
      ],
      "name": "OwnershipTransferred",
      "type": "event"
    },
    {
      "anonymous": false,
      "inputs": [
        {
          "indexed": true,
          "internalType": "address",
          "name": "from",
          "type": "address"
        },
        {
          "indexed": true,
          "internalType": "address",
          "name": "to",
          "type": "address"
        },
        {
          "indexed": false,
          "internalType": "uint256",
          "name": "value",
          "type": "uint256"
        }
      ],
      "name": "Transfer",
      "type": "event"
    },
    {
      "anonymous": false,
      "inputs": [
        {
          "indexed": true,
          "internalType": "address",
          "name": "from",
          "type": "address"
        },
        {
          "indexed": true,
          "internalType": "address",
          "name": "to",
          "type": "address"
        },
        {
          "indexed": false,
          "internalType": "uint256",
          "name": "goodsid",
          "type": "uint256"
        },
        {
          "indexed": false,
          "internalType": "uint256",
          "name": "amount",
          "type": "uint256"
        }
      ],
      "name": "TransferEvent",
      "type": "event"
    },
    {
      "anonymous": false,
      "inputs": [
        {
          "indexed": true,
          "internalType": "string",
          "name": "name",
          "type": "string"
        }
      ],
      "name": "regigov",
      "type": "event"
    },
    {
      "inputs": [],
      "name": "Buy_token",
      "outputs": [],
      "stateMutability": "payable",
      "type": "function"
    },
    {
      "inputs": [
        {
          "internalType": "uint256",
          "name": "_reward",
          "type": "uint256"
        }
      ],
      "name": "Register_Event",
      "outputs": [],
      "stateMutability": "nonpayable",
      "type": "function"
    },
    {
      "inputs": [
        {
          "internalType": "address",
          "name": "owner",
          "type": "address"
        },
        {
          "internalType": "address",
          "name": "spender",
          "type": "address"
        }
      ],
      "name": "allowance",
      "outputs": [
        {
          "internalType": "uint256",
          "name": "",
          "type": "uint256"
        }
      ],
      "stateMutability": "view",
      "type": "function"
    },
    {
      "inputs": [
        {
          "internalType": "address",
          "name": "spender",
          "type": "address"
        },
        {
          "internalType": "uint256",
          "name": "amount",
          "type": "uint256"
        }
      ],
      "name": "approve",
      "outputs": [
        {
          "internalType": "bool",
          "name": "",
          "type": "bool"
        }
      ],
      "stateMutability": "nonpayable",
      "type": "function"
    },
    {
      "inputs": [
        {
          "internalType": "address",
          "name": "account",
          "type": "address"
        }
      ],
      "name": "balanceOf",
      "outputs": [
        {
          "internalType": "uint256",
          "name": "",
          "type": "uint256"
        }
      ],
      "stateMutability": "view",
      "type": "function"
    },
    {
      "inputs": [
        {
          "internalType": "uint256",
          "name": "amount",
          "type": "uint256"
        }
      ],
      "name": "burn",
      "outputs": [],
      "stateMutability": "nonpayable",
      "type": "function"
    },
    {
      "inputs": [
        {
          "internalType": "address",
          "name": "account",
          "type": "address"
        },
        {
          "internalType": "uint256",
          "name": "amount",
          "type": "uint256"
        }
      ],
      "name": "burnFrom",
      "outputs": [],
      "stateMutability": "nonpayable",
      "type": "function"
    },
    {
      "inputs": [],
      "name": "decimals",
      "outputs": [
        {
          "internalType": "uint8",
          "name": "",
          "type": "uint8"
        }
      ],
      "stateMutability": "view",
      "type": "function"
    },
    {
      "inputs": [
        {
          "internalType": "address",
          "name": "spender",
          "type": "address"
        },
        {
          "internalType": "uint256",
          "name": "subtractedValue",
          "type": "uint256"
        }
      ],
      "name": "decreaseAllowance",
      "outputs": [
        {
          "internalType": "bool",
          "name": "",
          "type": "bool"
        }
      ],
      "stateMutability": "nonpayable",
      "type": "function"
    },
    {
      "inputs": [
        {
          "internalType": "address",
          "name": "_gov",
          "type": "address"
        },
        {
          "internalType": "uint256",
          "name": "_goodsid",
          "type": "uint256"
        },
        {
          "internalType": "uint256",
          "name": "_amount",
          "type": "uint256"
        }
      ],
      "name": "exchange",
      "outputs": [
        {
          "internalType": "bool",
          "name": "",
          "type": "bool"
        }
      ],
      "stateMutability": "nonpayable",
      "type": "function"
    },
    {
      "inputs": [
        {
          "internalType": "address",
          "name": "spender",
          "type": "address"
        },
        {
          "internalType": "uint256",
          "name": "addedValue",
          "type": "uint256"
        }
      ],
      "name": "increaseAllowance",
      "outputs": [
        {
          "internalType": "bool",
          "name": "",
          "type": "bool"
        }
      ],
      "stateMutability": "nonpayable",
      "type": "function"
    },
    {
      "inputs": [],
      "name": "name",
      "outputs": [
        {
          "internalType": "string",
          "name": "",
          "type": "string"
        }
      ],
      "stateMutability": "view",
      "type": "function"
    },
    {
      "inputs": [],
      "name": "owner",
      "outputs": [
        {
          "internalType": "address",
          "name": "",
          "type": "address"
        }
      ],
      "stateMutability": "view",
      "type": "function"
    },
    {
      "inputs": [
        {
          "internalType": "uint256",
          "name": "_eventnum",
          "type": "uint256"
        },
        {
          "internalType": "address[]",
          "name": "_participants",
          "type": "address[]"
        }
      ],
      "name": "provide_reward",
      "outputs": [],
      "stateMutability": "nonpayable",
      "type": "function"
    },
    {
      "inputs": [
        {
          "internalType": "uint256",
          "name": "_price",
          "type": "uint256"
        }
      ],
      "name": "register_Goods",
      "outputs": [],
      "stateMutability": "nonpayable",
      "type": "function"
    },
    {
      "inputs": [
        {
          "internalType": "address",
          "name": "_government",
          "type": "address"
        },
        {
          "internalType": "string",
          "name": "_name",
          "type": "string"
        }
      ],
      "name": "register_government",
      "outputs": [],
      "stateMutability": "nonpayable",
      "type": "function"
    },
    {
      "inputs": [],
      "name": "renounceOwnership",
      "outputs": [],
      "stateMutability": "nonpayable",
      "type": "function"
    },
    {
      "inputs": [],
      "name": "symbol",
      "outputs": [
        {
          "internalType": "string",
          "name": "",
          "type": "string"
        }
      ],
      "stateMutability": "view",
      "type": "function"
    },
    {
      "inputs": [],
      "name": "totalSupply",
      "outputs": [
        {
          "internalType": "uint256",
          "name": "",
          "type": "uint256"
        }
      ],
      "stateMutability": "view",
      "type": "function"
    },
    {
      "inputs": [
        {
          "internalType": "address",
          "name": "to",
          "type": "address"
        },
        {
          "internalType": "uint256",
          "name": "amount",
          "type": "uint256"
        }
      ],
      "name": "transfer",
      "outputs": [
        {
          "internalType": "bool",
          "name": "",
          "type": "bool"
        }
      ],
      "stateMutability": "nonpayable",
      "type": "function"
    },
    {
      "inputs": [
        {
          "internalType": "address",
          "name": "from",
          "type": "address"
        },
        {
          "internalType": "address",
          "name": "to",
          "type": "address"
        },
        {
          "internalType": "uint256",
          "name": "amount",
          "type": "uint256"
        }
      ],
      "name": "transferFrom",
      "outputs": [
        {
          "internalType": "bool",
          "name": "",
          "type": "bool"
        }
      ],
      "stateMutability": "nonpayable",
      "type": "function"
    },
    {
      "inputs": [
        {
          "internalType": "address",
          "name": "newOwner",
          "type": "address"
        }
      ],
      "name": "transferOwnership",
      "outputs": [],
      "stateMutability": "nonpayable",
      "type": "function"
    }
  ],
  "bytecode": "0x608060405260016006553480156200001657600080fd5b506040518060400160405280601081526020017f5369676874736565696e67546f6b656e000000000000000000000000000000008152506040518060400160405280600381526020017f5353540000000000000000000000000000000000000000000000000000000000815250816003908162000094919062000417565b508060049081620000a6919062000417565b505050620000c9620000bd620000cf60201b60201c565b620000d760201b60201c565b620004fe565b600033905090565b6000600560009054906101000a900473ffffffffffffffffffffffffffffffffffffffff16905081600560006101000a81548173ffffffffffffffffffffffffffffffffffffffff021916908373ffffffffffffffffffffffffffffffffffffffff1602179055508173ffffffffffffffffffffffffffffffffffffffff168173ffffffffffffffffffffffffffffffffffffffff167f8be0079c531659141344cd1fd0a4f28419497f9722a3daafe3b4186f6b6457e060405160405180910390a35050565b600081519050919050565b7f4e487b7100000000000000000000000000000000000000000000000000000000600052604160045260246000fd5b7f4e487b7100000000000000000000000000000000000000000000000000000000600052602260045260246000fd5b600060028204905060018216806200021f57607f821691505b602082108103620002355762000234620001d7565b5b50919050565b60008190508160005260206000209050919050565b60006020601f8301049050919050565b600082821b905092915050565b6000600883026200029f7fffffffffffffffffffffffffffffffffffffffffffffffffffffffffffffffff8262000260565b620002ab868362000260565b95508019841693508086168417925050509392505050565b6000819050919050565b6000819050919050565b6000620002f8620002f2620002ec84620002c3565b620002cd565b620002c3565b9050919050565b6000819050919050565b6200031483620002d7565b6200032c6200032382620002ff565b8484546200026d565b825550505050565b600090565b6200034362000334565b6200035081848462000309565b505050565b5b8181101562000378576200036c60008262000339565b60018101905062000356565b5050565b601f821115620003c75762000391816200023b565b6200039c8462000250565b81016020851015620003ac578190505b620003c4620003bb8562000250565b83018262000355565b50505b505050565b600082821c905092915050565b6000620003ec60001984600802620003cc565b1980831691505092915050565b6000620004078383620003d9565b9150826002028217905092915050565b62000422826200019d565b67ffffffffffffffff8111156200043e576200043d620001a8565b5b6200044a825462000206565b620004578282856200037c565b600060209050601f8311600181146200048f57600084156200047a578287015190505b620004868582620003f9565b865550620004f6565b601f1984166200049f866200023b565b60005b82811015620004c957848901518255600182019150602085019450602081019050620004a2565b86831015620004e95784890151620004e5601f891682620003d9565b8355505b6001600288020188555050505b505050505050565b6131ce806200050e6000396000f3fe6080604052600436106101355760003560e01c8063715018a6116100ab578063a457c2d71161006f578063a457c2d714610426578063a9059cbb14610463578063c1ac4a95146104a0578063dd62ed3e146104aa578063f15d6eef146104e7578063f2fde38b1461051057610135565b8063715018a61461036757806379cc67901461037e5780638da5cb5b146103a757806395d89b41146103d2578063a29d2808146103fd57610135565b806323b872dd116100fd57806323b872dd146102335780632f7b59ed14610270578063313ce5671461029957806339509351146102c457806342966c681461030157806370a082311461032a57610135565b806304192de61461013a57806306fdde0314610163578063095ea7b31461018e57806318160ddd146101cb578063236e06f6146101f6575b600080fd5b34801561014657600080fd5b50610161600480360381019061015c9190611f05565b610539565b005b34801561016f57600080fd5b5061017861069c565b6040516101859190611fe0565b60405180910390f35b34801561019a57600080fd5b506101b560048036038101906101b09190612002565b61072e565b6040516101c2919061205d565b60405180910390f35b3480156101d757600080fd5b506101e0610751565b6040516101ed9190612087565b60405180910390f35b34801561020257600080fd5b5061021d600480360381019061021891906120a2565b61075b565b60405161022a919061205d565b60405180910390f35b34801561023f57600080fd5b5061025a600480360381019061025591906120f5565b6108dd565b604051610267919061205d565b60405180910390f35b34801561027c57600080fd5b5061029760048036038101906102929190612148565b61090c565b005b3480156102a557600080fd5b506102ae610ae4565b6040516102bb9190612191565b60405180910390f35b3480156102d057600080fd5b506102eb60048036038101906102e69190612002565b610aed565b6040516102f8919061205d565b60405180910390f35b34801561030d57600080fd5b5061032860048036038101906103239190612148565b610b24565b005b34801561033657600080fd5b50610351600480360381019061034c91906121ac565b610b38565b60405161035e9190612087565b60405180910390f35b34801561037357600080fd5b5061037c610b80565b005b34801561038a57600080fd5b506103a560048036038101906103a09190612002565b610b94565b005b3480156103b357600080fd5b506103bc610bb4565b6040516103c991906121e8565b60405180910390f35b3480156103de57600080fd5b506103e7610bde565b6040516103f49190611fe0565b60405180910390f35b34801561040957600080fd5b50610424600480360381019061041f919061225e565b610c70565b005b34801561043257600080fd5b5061044d60048036038101906104489190612002565b610eda565b60405161045a919061205d565b60405180910390f35b34801561046f57600080fd5b5061048a60048036038101906104859190612002565b610f51565b604051610497919061205d565b60405180910390f35b6104a8610f74565b005b3480156104b657600080fd5b506104d160048036038101906104cc91906122be565b6110cf565b6040516104de9190612087565b60405180910390f35b3480156104f357600080fd5b5061050e60048036038101906105099190612148565b611156565b005b34801561051c57600080fd5b50610537600480360381019061053291906121ac565b61132e565b005b6000600760003373ffffffffffffffffffffffffffffffffffffffff1673ffffffffffffffffffffffffffffffffffffffff16815260200190815260200160002054036105bb576040517f08c379a00000000000000000000000000000000000000000000000000000000081526004016105b29061234a565b60405180910390fd5b6000600860003373ffffffffffffffffffffffffffffffffffffffff1673ffffffffffffffffffffffffffffffffffffffff168152602001908152602001600020600084815260200190815260200160002054905060008111610653576040517f08c379a000000000000000000000000000000000000000000000000000000000815260040161064a906123b6565b60405180910390fd5b60005b825181101561069657610683838281518110610675576106746123d6565b5b6020026020010151836113b1565b808061068e90612434565b915050610656565b50505050565b6060600380546106ab906124ab565b80601f01602080910402602001604051908101604052809291908181526020018280546106d7906124ab565b80156107245780601f106106f957610100808354040283529160200191610724565b820191906000526020600020905b81548152906001019060200180831161070757829003601f168201915b5050505050905090565b6000806107396113c0565b90506107468185856113c8565b600191505092915050565b6000600254905090565b600080600960008673ffffffffffffffffffffffffffffffffffffffff1673ffffffffffffffffffffffffffffffffffffffff1681526020019081526020016000206000858152602001908152602001600020549050600081116107f4576040517f08c379a00000000000000000000000000000000000000000000000000000000081526004016107eb90612528565b60405180910390fd5b82816108009190612548565b61080933610b38565b101561084a576040517f08c379a0000000000000000000000000000000000000000000000000000000008152600401610841906125d6565b60405180910390fd5b600061086186858461085c9190612548565b610f51565b905080156108d1578573ffffffffffffffffffffffffffffffffffffffff163373ffffffffffffffffffffffffffffffffffffffff167fbabc8cd3bd6701ee99131f374fd2ab4ea66f48dc4e4182ed78fecb0502e44dd687876040516108c89291906125f6565b60405180910390a35b80925050509392505050565b6000806108e86113c0565b90506108f5858285611591565b61090085858561161d565b60019150509392505050565b6000600760003373ffffffffffffffffffffffffffffffffffffffff1673ffffffffffffffffffffffffffffffffffffffff168152602001908152602001600020540361098e576040517f08c379a00000000000000000000000000000000000000000000000000000000081526004016109859061234a565b60405180910390fd5b6000600a6001600760003373ffffffffffffffffffffffffffffffffffffffff1673ffffffffffffffffffffffffffffffffffffffff168152602001908152602001600020546109de919061261f565b815481106109ef576109ee6123d6565b5b906000526020600020906005020160030154905081600860003373ffffffffffffffffffffffffffffffffffffffff1673ffffffffffffffffffffffffffffffffffffffff1681526020019081526020016000206000838152602001908152602001600020819055506001600a6001600760003373ffffffffffffffffffffffffffffffffffffffff1673ffffffffffffffffffffffffffffffffffffffff16815260200190815260200160002054610aa8919061261f565b81548110610ab957610ab86123d6565b5b90600052602060002090600502016003016000828254610ad99190612653565b925050819055505050565b60006012905090565b600080610af86113c0565b9050610b19818585610b0a85896110cf565b610b149190612653565b6113c8565b600191505092915050565b610b35610b2f6113c0565b82611893565b50565b60008060008373ffffffffffffffffffffffffffffffffffffffff1673ffffffffffffffffffffffffffffffffffffffff168152602001908152602001600020549050919050565b610b88611a60565b610b926000611ade565b565b610ba682610ba06113c0565b83611591565b610bb08282611893565b5050565b6000600560009054906101000a900473ffffffffffffffffffffffffffffffffffffffff16905090565b606060048054610bed906124ab565b80601f0160208091040260200160405190810160405280929190818152602001828054610c19906124ab565b8015610c665780601f10610c3b57610100808354040283529160200191610c66565b820191906000526020600020905b815481529060010190602001808311610c4957829003601f168201915b5050505050905090565b610c78611a60565b6000600760008573ffffffffffffffffffffffffffffffffffffffff1673ffffffffffffffffffffffffffffffffffffffff1681526020019081526020016000205414610cfa576040517f08c379a0000000000000000000000000000000000000000000000000000000008152600401610cf1906126d3565b60405180910390fd5b600654600760008573ffffffffffffffffffffffffffffffffffffffff1673ffffffffffffffffffffffffffffffffffffffff16815260200190815260200160002081905550600a6040518060a001604052808573ffffffffffffffffffffffffffffffffffffffff16815260200184848080601f016020809104026020016040519081016040528093929190818152602001838380828437600081840152601f19601f8201169050808301925050505050505081526020016006548152602001600081526020016000815250908060018154018082558091505060019003906000526020600020906005020160009091909190915060008201518160000160006101000a81548173ffffffffffffffffffffffffffffffffffffffff021916908373ffffffffffffffffffffffffffffffffffffffff1602179055506020820151816001019081610e4c919061289f565b50604082015181600201556060820151816003015560808201518160040155505060066000815480929190610e8090612434565b9190505550610e91836103e8611ba4565b8181604051610ea19291906129b0565b60405180910390207f04a73d7bd4619bccf2b4f8f484c0f649ad742d1e99d2beb006aae89342f1096660405160405180910390a2505050565b600080610ee56113c0565b90506000610ef382866110cf565b905083811015610f38576040517f08c379a0000000000000000000000000000000000000000000000000000000008152600401610f2f90612a3b565b60405180910390fd5b610f4582868684036113c8565b60019250505092915050565b600080610f5c6113c0565b9050610f6981858561161d565b600191505092915050565b6000600760003373ffffffffffffffffffffffffffffffffffffffff1673ffffffffffffffffffffffffffffffffffffffff1681526020019081526020016000205403610ff6576040517f08c379a0000000000000000000000000000000000000000000000000000000008152600401610fed9061234a565b60405180910390fd5b670de0b6b3a7640000341015611041576040517f08c379a000000000000000000000000000000000000000000000000000000000815260040161103890612aa7565b60405180910390fd5b6000670de0b6b3a7640000346110579190612af6565b14611097576040517f08c379a000000000000000000000000000000000000000000000000000000000815260040161108e90612b73565b60405180910390fd5b6000670de0b6b3a7640000346110ad9190612b93565b905060006103e8826110bf9190612548565b90506110cb3382611ba4565b5050565b6000600160008473ffffffffffffffffffffffffffffffffffffffff1673ffffffffffffffffffffffffffffffffffffffff16815260200190815260200160002060008373ffffffffffffffffffffffffffffffffffffffff1673ffffffffffffffffffffffffffffffffffffffff16815260200190815260200160002054905092915050565b6000600760003373ffffffffffffffffffffffffffffffffffffffff1673ffffffffffffffffffffffffffffffffffffffff16815260200190815260200160002054036111d8576040517f08c379a00000000000000000000000000000000000000000000000000000000081526004016111cf9061234a565b60405180910390fd5b6000600a6001600760003373ffffffffffffffffffffffffffffffffffffffff1673ffffffffffffffffffffffffffffffffffffffff16815260200190815260200160002054611228919061261f565b81548110611239576112386123d6565b5b906000526020600020906005020160040154905081600960003373ffffffffffffffffffffffffffffffffffffffff1673ffffffffffffffffffffffffffffffffffffffff1681526020019081526020016000206000838152602001908152602001600020819055506001600a6001600760003373ffffffffffffffffffffffffffffffffffffffff1673ffffffffffffffffffffffffffffffffffffffff168152602001908152602001600020546112f2919061261f565b81548110611303576113026123d6565b5b906000526020600020906005020160040160008282546113239190612653565b925050819055505050565b611336611a60565b600073ffffffffffffffffffffffffffffffffffffffff168173ffffffffffffffffffffffffffffffffffffffff16036113a5576040517f08c379a000000000000000000000000000000000000000000000000000000000815260040161139c90612c36565b60405180910390fd5b6113ae81611ade565b50565b6113bb8282610f51565b505050565b600033905090565b600073ffffffffffffffffffffffffffffffffffffffff168373ffffffffffffffffffffffffffffffffffffffff1603611437576040517f08c379a000000000000000000000000000000000000000000000000000000000815260040161142e90612cc8565b60405180910390fd5b600073ffffffffffffffffffffffffffffffffffffffff168273ffffffffffffffffffffffffffffffffffffffff16036114a6576040517f08c379a000000000000000000000000000000000000000000000000000000000815260040161149d90612d5a565b60405180910390fd5b80600160008573ffffffffffffffffffffffffffffffffffffffff1673ffffffffffffffffffffffffffffffffffffffff16815260200190815260200160002060008473ffffffffffffffffffffffffffffffffffffffff1673ffffffffffffffffffffffffffffffffffffffff168152602001908152602001600020819055508173ffffffffffffffffffffffffffffffffffffffff168373ffffffffffffffffffffffffffffffffffffffff167f8c5be1e5ebec7d5bd14f71427d1e84f3dd0314c0f7b2291e5b200ac8c7c3b925836040516115849190612087565b60405180910390a3505050565b600061159d84846110cf565b90507fffffffffffffffffffffffffffffffffffffffffffffffffffffffffffffffff81146116175781811015611609576040517f08c379a000000000000000000000000000000000000000000000000000000000815260040161160090612dc6565b60405180910390fd5b61161684848484036113c8565b5b50505050565b600073ffffffffffffffffffffffffffffffffffffffff168373ffffffffffffffffffffffffffffffffffffffff160361168c576040517f08c379a000000000000000000000000000000000000000000000000000000000815260040161168390612e58565b60405180910390fd5b600073ffffffffffffffffffffffffffffffffffffffff168273ffffffffffffffffffffffffffffffffffffffff16036116fb576040517f08c379a00000000000000000000000000000000000000000000000000000000081526004016116f290612eea565b60405180910390fd5b611706838383611cfa565b60008060008573ffffffffffffffffffffffffffffffffffffffff1673ffffffffffffffffffffffffffffffffffffffff1681526020019081526020016000205490508181101561178c576040517f08c379a000000000000000000000000000000000000000000000000000000000815260040161178390612f7c565b60405180910390fd5b8181036000808673ffffffffffffffffffffffffffffffffffffffff1673ffffffffffffffffffffffffffffffffffffffff16815260200190815260200160002081905550816000808573ffffffffffffffffffffffffffffffffffffffff1673ffffffffffffffffffffffffffffffffffffffff168152602001908152602001600020600082825401925050819055508273ffffffffffffffffffffffffffffffffffffffff168473ffffffffffffffffffffffffffffffffffffffff167fddf252ad1be2c89b69c2b068fc378daa952ba7f163c4a11628f55a4df523b3ef8460405161187a9190612087565b60405180910390a361188d848484611cff565b50505050565b600073ffffffffffffffffffffffffffffffffffffffff168273ffffffffffffffffffffffffffffffffffffffff1603611902576040517f08c379a00000000000000000000000000000000000000000000000000000000081526004016118f99061300e565b60405180910390fd5b61190e82600083611cfa565b60008060008473ffffffffffffffffffffffffffffffffffffffff1673ffffffffffffffffffffffffffffffffffffffff16815260200190815260200160002054905081811015611994576040517f08c379a000000000000000000000000000000000000000000000000000000000815260040161198b906130a0565b60405180910390fd5b8181036000808573ffffffffffffffffffffffffffffffffffffffff1673ffffffffffffffffffffffffffffffffffffffff1681526020019081526020016000208190555081600260008282540392505081905550600073ffffffffffffffffffffffffffffffffffffffff168373ffffffffffffffffffffffffffffffffffffffff167fddf252ad1be2c89b69c2b068fc378daa952ba7f163c4a11628f55a4df523b3ef84604051611a479190612087565b60405180910390a3611a5b83600084611cff565b505050565b611a686113c0565b73ffffffffffffffffffffffffffffffffffffffff16611a86610bb4565b73ffffffffffffffffffffffffffffffffffffffff1614611adc576040517f08c379a0000000000000000000000000000000000000000000000000000000008152600401611ad39061310c565b60405180910390fd5b565b6000600560009054906101000a900473ffffffffffffffffffffffffffffffffffffffff16905081600560006101000a81548173ffffffffffffffffffffffffffffffffffffffff021916908373ffffffffffffffffffffffffffffffffffffffff1602179055508173ffffffffffffffffffffffffffffffffffffffff168173ffffffffffffffffffffffffffffffffffffffff167f8be0079c531659141344cd1fd0a4f28419497f9722a3daafe3b4186f6b6457e060405160405180910390a35050565b600073ffffffffffffffffffffffffffffffffffffffff168273ffffffffffffffffffffffffffffffffffffffff1603611c13576040517f08c379a0000000000000000000000000000000000000000000000000000000008152600401611c0a90613178565b60405180910390fd5b611c1f60008383611cfa565b8060026000828254611c319190612653565b92505081905550806000808473ffffffffffffffffffffffffffffffffffffffff1673ffffffffffffffffffffffffffffffffffffffff168152602001908152602001600020600082825401925050819055508173ffffffffffffffffffffffffffffffffffffffff16600073ffffffffffffffffffffffffffffffffffffffff167fddf252ad1be2c89b69c2b068fc378daa952ba7f163c4a11628f55a4df523b3ef83604051611ce29190612087565b60405180910390a3611cf660008383611cff565b5050565b505050565b505050565b6000604051905090565b600080fd5b600080fd5b6000819050919050565b611d2b81611d18565b8114611d3657600080fd5b50565b600081359050611d4881611d22565b92915050565b600080fd5b6000601f19601f8301169050919050565b7f4e487b7100000000000000000000000000000000000000000000000000000000600052604160045260246000fd5b611d9c82611d53565b810181811067ffffffffffffffff82111715611dbb57611dba611d64565b5b80604052505050565b6000611dce611d04565b9050611dda8282611d93565b919050565b600067ffffffffffffffff821115611dfa57611df9611d64565b5b602082029050602081019050919050565b600080fd5b600073ffffffffffffffffffffffffffffffffffffffff82169050919050565b6000611e3b82611e10565b9050919050565b611e4b81611e30565b8114611e5657600080fd5b50565b600081359050611e6881611e42565b92915050565b6000611e81611e7c84611ddf565b611dc4565b90508083825260208201905060208402830185811115611ea457611ea3611e0b565b5b835b81811015611ecd5780611eb98882611e59565b845260208401935050602081019050611ea6565b5050509392505050565b600082601f830112611eec57611eeb611d4e565b5b8135611efc848260208601611e6e565b91505092915050565b60008060408385031215611f1c57611f1b611d0e565b5b6000611f2a85828601611d39565b925050602083013567ffffffffffffffff811115611f4b57611f4a611d13565b5b611f5785828601611ed7565b9150509250929050565b600081519050919050565b600082825260208201905092915050565b60005b83811015611f9b578082015181840152602081019050611f80565b60008484015250505050565b6000611fb282611f61565b611fbc8185611f6c565b9350611fcc818560208601611f7d565b611fd581611d53565b840191505092915050565b60006020820190508181036000830152611ffa8184611fa7565b905092915050565b6000806040838503121561201957612018611d0e565b5b600061202785828601611e59565b925050602061203885828601611d39565b9150509250929050565b60008115159050919050565b61205781612042565b82525050565b6000602082019050612072600083018461204e565b92915050565b61208181611d18565b82525050565b600060208201905061209c6000830184612078565b92915050565b6000806000606084860312156120bb576120ba611d0e565b5b60006120c986828701611e59565b93505060206120da86828701611d39565b92505060406120eb86828701611d39565b9150509250925092565b60008060006060848603121561210e5761210d611d0e565b5b600061211c86828701611e59565b935050602061212d86828701611e59565b925050604061213e86828701611d39565b9150509250925092565b60006020828403121561215e5761215d611d0e565b5b600061216c84828501611d39565b91505092915050565b600060ff82169050919050565b61218b81612175565b82525050565b60006020820190506121a66000830184612182565b92915050565b6000602082840312156121c2576121c1611d0e565b5b60006121d084828501611e59565b91505092915050565b6121e281611e30565b82525050565b60006020820190506121fd60008301846121d9565b92915050565b600080fd5b60008083601f84011261221e5761221d611d4e565b5b8235905067ffffffffffffffff81111561223b5761223a612203565b5b60208301915083600182028301111561225757612256611e0b565b5b9250929050565b60008060006040848603121561227757612276611d0e565b5b600061228586828701611e59565b935050602084013567ffffffffffffffff8111156122a6576122a5611d13565b5b6122b286828701612208565b92509250509250925092565b600080604083850312156122d5576122d4611d0e565b5b60006122e385828601611e59565b92505060206122f485828601611e59565b9150509250929050565b7f796f7520617265206e6f7420676f7665726e6d656e7400000000000000000000600082015250565b6000612334601683611f6c565b915061233f826122fe565b602082019050919050565b6000602082019050818103600083015261236381612327565b9050919050565b7f6576656e74206973206e6f7420646566696e6564000000000000000000000000600082015250565b60006123a0601483611f6c565b91506123ab8261236a565b602082019050919050565b600060208201905081810360008301526123cf81612393565b9050919050565b7f4e487b7100000000000000000000000000000000000000000000000000000000600052603260045260246000fd5b7f4e487b7100000000000000000000000000000000000000000000000000000000600052601160045260246000fd5b600061243f82611d18565b91507fffffffffffffffffffffffffffffffffffffffffffffffffffffffffffffffff820361247157612470612405565b5b600182019050919050565b7f4e487b7100000000000000000000000000000000000000000000000000000000600052602260045260246000fd5b600060028204905060018216806124c357607f821691505b6020821081036124d6576124d561247c565b5b50919050565b7f676f6f6473206973206e6f7420646566696e6400000000000000000000000000600082015250565b6000612512601383611f6c565b915061251d826124dc565b602082019050919050565b6000602082019050818103600083015261254181612505565b9050919050565b600061255382611d18565b915061255e83611d18565b925082820261256c81611d18565b9150828204841483151761258357612582612405565b5b5092915050565b7f696e73756666696369656e7420616d6f756e74206f6620746f6b656e00000000600082015250565b60006125c0601c83611f6c565b91506125cb8261258a565b602082019050919050565b600060208201905081810360008301526125ef816125b3565b9050919050565b600060408201905061260b6000830185612078565b6126186020830184612078565b9392505050565b600061262a82611d18565b915061263583611d18565b925082820390508181111561264d5761264c612405565b5b92915050565b600061265e82611d18565b915061266983611d18565b925082820190508082111561268157612680612405565b5b92915050565b7f616c726561647920726567697374657265736400000000000000000000000000600082015250565b60006126bd601383611f6c565b91506126c882612687565b602082019050919050565b600060208201905081810360008301526126ec816126b0565b9050919050565b60008190508160005260206000209050919050565b60006020601f8301049050919050565b600082821b905092915050565b6000600883026127557fffffffffffffffffffffffffffffffffffffffffffffffffffffffffffffffff82612718565b61275f8683612718565b95508019841693508086168417925050509392505050565b6000819050919050565b600061279c61279761279284611d18565b612777565b611d18565b9050919050565b6000819050919050565b6127b683612781565b6127ca6127c2826127a3565b848454612725565b825550505050565b600090565b6127df6127d2565b6127ea8184846127ad565b505050565b5b8181101561280e576128036000826127d7565b6001810190506127f0565b5050565b601f82111561285357612824816126f3565b61282d84612708565b8101602085101561283c578190505b61285061284885612708565b8301826127ef565b50505b505050565b600082821c905092915050565b600061287660001984600802612858565b1980831691505092915050565b600061288f8383612865565b9150826002028217905092915050565b6128a882611f61565b67ffffffffffffffff8111156128c1576128c0611d64565b5b6128cb82546124ab565b6128d6828285612812565b600060209050601f83116001811461290957600084156128f7578287015190505b6129018582612883565b865550612969565b601f198416612917866126f3565b60005b8281101561293f5784890151825560018201915060208501945060208101905061291a565b8683101561295c5784890151612958601f891682612865565b8355505b6001600288020188555050505b505050505050565b600081905092915050565b82818337600083830152505050565b60006129978385612971565b93506129a483858461297c565b82840190509392505050565b60006129bd82848661298b565b91508190509392505050565b7f45524332303a2064656372656173656420616c6c6f77616e63652062656c6f7760008201527f207a65726f000000000000000000000000000000000000000000000000000000602082015250565b6000612a25602583611f6c565b9150612a30826129c9565b604082019050919050565b60006020820190508181036000830152612a5481612a18565b9050919050565b7f3100000000000000000000000000000000000000000000000000000000000000600082015250565b6000612a91600183611f6c565b9150612a9c82612a5b565b602082019050919050565b60006020820190508181036000830152612ac081612a84565b9050919050565b7f4e487b7100000000000000000000000000000000000000000000000000000000600052601260045260246000fd5b6000612b0182611d18565b9150612b0c83611d18565b925082612b1c57612b1b612ac7565b5b828206905092915050565b7f3200000000000000000000000000000000000000000000000000000000000000600082015250565b6000612b5d600183611f6c565b9150612b6882612b27565b602082019050919050565b60006020820190508181036000830152612b8c81612b50565b9050919050565b6000612b9e82611d18565b9150612ba983611d18565b925082612bb957612bb8612ac7565b5b828204905092915050565b7f4f776e61626c653a206e6577206f776e657220697320746865207a65726f206160008201527f6464726573730000000000000000000000000000000000000000000000000000602082015250565b6000612c20602683611f6c565b9150612c2b82612bc4565b604082019050919050565b60006020820190508181036000830152612c4f81612c13565b9050919050565b7f45524332303a20617070726f76652066726f6d20746865207a65726f2061646460008201527f7265737300000000000000000000000000000000000000000000000000000000602082015250565b6000612cb2602483611f6c565b9150612cbd82612c56565b604082019050919050565b60006020820190508181036000830152612ce181612ca5565b9050919050565b7f45524332303a20617070726f766520746f20746865207a65726f20616464726560008201527f7373000000000000000000000000000000000000000000000000000000000000602082015250565b6000612d44602283611f6c565b9150612d4f82612ce8565b604082019050919050565b60006020820190508181036000830152612d7381612d37565b9050919050565b7f45524332303a20696e73756666696369656e7420616c6c6f77616e6365000000600082015250565b6000612db0601d83611f6c565b9150612dbb82612d7a565b602082019050919050565b60006020820190508181036000830152612ddf81612da3565b9050919050565b7f45524332303a207472616e736665722066726f6d20746865207a65726f20616460008201527f6472657373000000000000000000000000000000000000000000000000000000602082015250565b6000612e42602583611f6c565b9150612e4d82612de6565b604082019050919050565b60006020820190508181036000830152612e7181612e35565b9050919050565b7f45524332303a207472616e7366657220746f20746865207a65726f206164647260008201527f6573730000000000000000000000000000000000000000000000000000000000602082015250565b6000612ed4602383611f6c565b9150612edf82612e78565b604082019050919050565b60006020820190508181036000830152612f0381612ec7565b9050919050565b7f45524332303a207472616e7366657220616d6f756e742065786365656473206260008201527f616c616e63650000000000000000000000000000000000000000000000000000602082015250565b6000612f66602683611f6c565b9150612f7182612f0a565b604082019050919050565b60006020820190508181036000830152612f9581612f59565b9050919050565b7f45524332303a206275726e2066726f6d20746865207a65726f2061646472657360008201527f7300000000000000000000000000000000000000000000000000000000000000602082015250565b6000612ff8602183611f6c565b915061300382612f9c565b604082019050919050565b6000602082019050818103600083015261302781612feb565b9050919050565b7f45524332303a206275726e20616d6f756e7420657863656564732062616c616e60008201527f6365000000000000000000000000000000000000000000000000000000000000602082015250565b600061308a602283611f6c565b91506130958261302e565b604082019050919050565b600060208201905081810360008301526130b98161307d565b9050919050565b7f4f776e61626c653a2063616c6c6572206973206e6f7420746865206f776e6572600082015250565b60006130f6602083611f6c565b9150613101826130c0565b602082019050919050565b60006020820190508181036000830152613125816130e9565b9050919050565b7f45524332303a206d696e7420746f20746865207a65726f206164647265737300600082015250565b6000613162601f83611f6c565b915061316d8261312c565b602082019050919050565b6000602082019050818103600083015261319181613155565b905091905056fea264697066735822122013812644812a1903626d56d1beab9b45a526e0663bba206cc13408dcd518743f64736f6c63430008130033",
  "linkReferences": {},
  "deployedLinkReferences": {}
}